:020000040800F2
:1000000000000220E14E0008A5250008AB250008ED
:10001000B1250008B7250008BD2500080000000034
:10002000000000000000000000000000C3250008E0
:10003000D125000800000000DF250008ED2500089C
:10004000314F0008314F0008314F0008314F000890
:10005000314F0008314F0008314F0008314F000880
:10006000314F0008314F0008314F0008314F000870
:10007000314F0008314F0008314F0008314F000860
:10008000314F0008314F0008314F0008314F000850
:10009000314F0008314F0008314F0008314F000840
:1000A000314F0008314F0008314F0008314F000830
:1000B000314F0008314F0008314F0008314F000820
:1000C000314F0008314F0008314F0008314F000810
:1000D000314F0008314F0008F9250008314F000862
:1000E000314F0008314F0008314F0008314F0008F0
:1000F000314F0008314F0008314F0008314F0008E0
:10010000314F0008314F0008314F0008314F0008CF
:10011000314F0008314F0008314F0008314F0008BF
:10012000314F0008314F0008314F0008314F0008AF
:10013000314F00080000000000000000314F0008AF
:10014000314F0008314F0008314F0008314F00088F
:10015000314F0008314F0008314F0008314F00087F
:10016000314F0008314F0008314F0008314F00086F
:10017000314F0008314F0008314F000800000000E7
:1001800000000000314F00080000000000000000E7
:10019000314F00080000000000000000314F00084F
:1001A000000000000000000000000000314F0008C7
:1001B000314F0008314F0008314F0008314F00081F
:0401C000314F0008B3
:1001D00010B5054C237833B9044B13B10448AFF381
:1001E00000800123237010BD600700200000000084
:1001F000FC5B010808B5034B1BB103490348AFF38F
:10020000008008BD0000000064070020FC5B0108BE
:1002100081F0004102E000BF83F0004330B54FEAB7
:1002200041044FEA430594EA050F08BF90EA020F24
:100230001FBF54EA000C55EA020C7FEA645C7FEAB7
:10024000655C00F0E2804FEA5454D4EB5555B8BFDA
:100250006D420CDD2C4480EA020281EA030382EA4B
:10026000000083EA010180EA020281EA0303362DDD
:1002700088BF30BD11F0004F4FEA01314FF4801CB0
:100280004CEA113102D0404261EB410113F0004FC2
:100290004FEA03334CEA133302D0524263EB430379
:1002A00094EA050F00F0A780A4F10104D5F1200E17
:1002B0000DDB02FA0EFC22FA05F2801841F1000172
:1002C00003FA0EF2801843FA05F359410EE0A5F146
:1002D00020050EF1200E012A03FA0EFC28BF4CF077
:1002E000020C43FA05F3C01851EBE37101F000452D
:1002F00007D54FF0000EDCF1000C7EEB00006EEB3A
:100300000101B1F5801F1BD3B1F5001F0CD34908C3
:100310005FEA30004FEA3C0C04F101044FEA44521A
:1003200012F5800F80F09A80BCF1004F08BF5FEAA1
:10033000500C50F1000041EB045141EA050130BD81
:100340005FEA4C0C404141EB0101013C28BFB1F593
:10035000801FE9D291F0000F04BF01460020B1FADE
:1003600081F308BF2033A3F10B03B3F120020CDAB1
:100370000C3208DD02F1140CC2F10C0201FA0CF08F
:1003800021FA02F10CE002F11402D8BFC2F1200CF4
:1003900001FA02F120FA0CFCDCBF41EA0C019040AA
:1003A000E41AA2BF01EB0451294330BD6FEA0404F3
:1003B0001F3C1CDA0C340EDC04F11404C4F12002DE
:1003C00020FA04F001FA02F340EA030021FA04F3F0
:1003D00045EA030130BDC4F10C04C4F1200220FA47
:1003E00002F001FA04F340EA0300294630BD21FA85
:1003F00004F0294630BD94F0000F83F4801306BF4B
:1004000081F480110134013D4EE77FEA645C18BF3E
:100410007FEA655C29D094EA050F08BF90EA020FD5
:1004200005D054EA000C04BF1946104630BD91EACD
:10043000030F1EBF0021002030BD5FEA545C05D1D0
:100440004000494128BF41F0004130BD14F580040F
:100450003CBF01F5801130BD01F0004545F0FE4183
:1004600041F470014FF0000030BD7FEA645C1ABFB8
:10047000194610467FEA655C1CBF0B46024650EAEF
:10048000013406BF52EA033591EA030F41F400211B
:1004900030BD00BF90F0000F04BF0021704730B5A1
:1004A0004FF4806404F132044FF000054FF0000176
:1004B00050E700BF90F0000F04BF0021704730B537
:1004C0004FF4806404F1320410F0004548BF40420C
:1004D0004FF000013EE700BF42004FEAE2014FEA61
:1004E00031014FEA02701FBF12F07F4393F07F4F3C
:1004F00081F06051704732F07F4208BF704793F03F
:100500007F4F04BF41F40021704730B54FF4607451
:1005100001F0004521F000411CE700BF50EA010254
:1005200008BF704730B54FF000050AE050EA0102FD
:1005300008BF704730B511F0004502D5404261EB6D
:1005400041014FF4806404F132045FEA915C3FF4AE
:10055000D8AE4FF003025FEADC0C18BF03325FEA4B
:10056000DC0C18BF033202EBDC02C2F1200300FAFC
:1005700003FC20FA02F001FA03FE40EA0E0021FA21
:1005800002F11444BDE600BF4FF0FF3C06E000BF9F
:100590004FF0010C02E000BF4FF0010C4DF804CD0C
:1005A0004FEA410C7FEA6C5C4FEA430C18BF7FEACC
:1005B0006C5C1BD001B050EA410C0CBF52EA430CFA
:1005C00091EA030F02BF90EA020F0020704710F17A
:1005D000000F91EA030F58BF994208BF90422CBF09
:1005E000D8176FEAE37040F0010070474FEA410C02
:1005F0007FEA6C5C02D150EA013C07D14FEA430C20
:100600007FEA6C5CD6D152EA033CD3D05DF8040B90
:10061000704700BF8446104662468C4619466346C2
:1006200000E000BF01B5FFF7B7FF002848BF10F199
:10063000000F01BD4DF808EDFFF7F4FF0CBF0120DE
:1006400000205DF808FB00BF4DF808EDFFF7EAFF5A
:1006500034BF012000205DF808FB00BF4DF808ED15
:10066000FFF7E0FF94BF012000205DF808FB00BF0A
:100670004DF808EDFFF7CEFF94BF012000205DF894
:1006800008FB00BF4DF808EDFFF7C4FF34BF0120A1
:1006900000205DF808FB00BF7BB972B90029BEBF1E
:1006A00000204FF0004106E008BF00281CBF6FF09B
:1006B00000414FF0FF3001F041B9ADF1080C6DE998
:1006C00004CE002909DB002B1ADB00F04DF8DDF821
:1006D00004E0DDE9022304B07047404261EB4101D0
:1006E000002B1BDB00F040F8DDF804E0DDE902231D
:1006F00004B0404261EB4101524263EB4303704757
:10070000524263EB430300F02FF8DDF804E0DDE92B
:10071000022304B0404261EB41017047524263EB57
:10072000430300F021F8DDF804E0DDE9022304B022
:10073000524263EB4303704753B94AB9002908BFDB
:1007400000281CBF4FF0FF314FF0FF3001F0F6B82A
:10075000ADF1080C6DE904CE00F006F8DDF804E018
:10076000DDE9022304B070472DE9F047089D0C46EF
:10077000002B4ED194468C458646B2FA82F262D95D
:100780004AB1C2F12003914020FA03F30CFA02FCB3
:10079000194300FA02FE4FEA1C471FFA8CF6B1FB20
:1007A000F7F44FEA1E4307FB141143EA014304FB2D
:1007B00006F199420AD91CEB030304F1FF3080F0E3
:1007C0001281994240F20F81023C6344591A1FFA88
:1007D0008EF3B1FBF7F007FB101143EA014300FB76
:1007E00006F69E420AD91CEB030300F1FF3180F0AC
:1007F000FC809E4240F2F980634402389B1B40EA31
:10080000044000211DB1D3400022C5E90032BDE8FB
:10081000F0878B4205D90DB1C5E9000100210846DA
:10082000F5E7B3FA83F1002946D1A34202D39042FF
:10083000C0F0F080861A64EB03030120002DE6D09F
:10084000C5E90063E3E7002A40F09080A1EB0C04C7
:100850004FEA1C481FFA8CF70121B4FBF8F64FEA67
:100860001E4308FB164443EA044307FB06F0984284
:1008700008D91CEB030306F1FF3402D2984200F2C0
:10088000CD8026461C1A1FFA8EF3B4FBF8F008FB45
:10089000104443EA044300FB07F79F4208D91CEBCE
:1008A000030300F1FF3402D29F4200F2B0802046E1
:1008B000DB1B40EA0640A5E7C1F120068B4022FA87
:1008C00006F71F4320FA06FC04FA01F343EA0C037F
:1008D000F44000FA01F8380C4FEA1349B4FBF0FE7B
:1008E0001FFA87FC00FB1E4449EA04440EFB0CF986
:1008F000A14502FA01F20AD93C190EF1FF3A80F043
:100900008480A14540F28180AEF1020E3C44A4EB0C
:1009100009041FFA83F9B4FBF0F300FB134449EA1E
:10092000044403FB0CFCA44507D93C1903F1FF3038
:1009300067D2A44565D9023B3C4443EA0E40A0FB84
:100940000293A4EB0C049C42CE469C4651D34ED05D
:1009500055B1B8EB0E0364EB0C0404FA06F6CB4079
:100960001E43CC40C5E90064002150E7C2F12003DA
:1009700020FA03F10CFA02FC24FA03F394400C432E
:100980004FEA1C4800FA02FE1FFA8CF7B3FBF8F09E
:1009900008FB1031230C43EA014300FB07F19942A5
:1009A00008D91CEB030300F1FF362CD299422AD957
:1009B000023863445B1AA4B2B3FBF8F108FB1133AD
:1009C00044EA034401FB07F3A34208D91CEB0404E7
:1009D00001F1FF3613D2A34211D902396444E41A5B
:1009E00041EA004139E70446F0E6084606E7C84513
:1009F000AED2B9EB020E63EB070C0138A8E7314623
:100A0000EDE7034699E73046D4E7D6467FE76344EF
:100A100002384DE70646234608460FE7023E634488
:100A200030E700BF03685A004CBF43F0004323F097
:100A300000431844704700BF2DE9F84349B34F1EE7
:100A4000044615463E464FF0000909EB060101EB4E
:100A5000D171491004EBC1084046FFF7E3FF8F4214
:100A600003464FEAC1000FD00830AB42204407D8FC
:100A7000FFF7D8FF0138A84208D201F10109E4E7E5
:100A8000894506D04E1EE0E7AB42F9D84046BDE8A6
:100A9000F8834FF000084046BDE8F883012807D0EE
:100AA000022807D0044B00280CBF184600207047CE
:100AB0000248704702487047651100086911000834
:100AC0006D11000830B5214B83B004468D1E1BB359
:100AD00001A92846AFF3008088B301992A46FFF7A1
:100AE000ABFF014658B3FFF79DFF4B68A064012B95
:100AF00028D0002B01F104001FDBFFF793FF002338
:100B000023650368E064002B0DDBFFF78BFF0346D2
:100B10000020236103B030BD0D4B0E49C91AC91026
:100B200018460191DAE7C3F30360FFF7B7FF034606
:100B300028B10020236103B030BD0123E0E700238A
:100B40000920E6E700230520E3E700BF00000000DE
:100B5000C0690108886A01080368DA0710B504460D
:100B600006D49B0700F1480009D500F069FC236812
:100B7000590709D51A070ED5DB0613D510BD00F0AD
:100B800057FC23685907F5D404F1D00000F060FC4D
:100B900023681A07F0D404F5A87000F061FC2368FC
:100BA000DB06EBD404F5E870BDE8104000F09CBC17
:100BB000092070470346006800B11844704700BF21
:100BC000704700BF70B504460E46316C2046FFF7F3
:100BD00079FF054688B9326C626123693246214645
:100BE000012098470828F0D0072806D12846316C04
:100BF000FFF7E6FF301D00F00FFC10F029F900BFF1
:100C00002DE9F0470D1DD0F80C80D0F8189007465C
:100C100014460FCDADF5727D0DF10C0CACE80F0054
:100C20000FCDACE80F000FCDACE80F0095E80F003A
:100C300002AE4FF0000E8CE80F00C6F800E020E096
:100C4000336C7B614FF4F07231467AA811F0E8F80A
:100C50003B697AAA394650469847889B7364214677
:100C6000CDE9006905463B463A460120C0470446A7
:100C700018BB4FF4F0727AA9304611F0D1F8082D64
:100C800019D1316C3846FFF71DFF09345FFA84FA39
:100C900005460028D4D0B36B73643A46CDE90069A9
:100CA0003B464AF010010120C04730B928460DF5F7
:100CB000727DBDE8F087072D05D0092528460DF582
:100CC000727DBDE8F0872046316CFFF779FF03A8FD
:100CD00000F0A2FB406C7047F0B5CB6B0B6401F1E8
:100CE000040C0E460546BCE80F00F9B001AC0FC479
:100CF000BCE80F000FC4BCE80F000FC49CE80F0055
:100D00004FF0FF3784E80F00009706E02B696A4632
:100D1000294698470828044608D110992846FFF725
:100D2000D1FE0028F2D0092079B0F0BD6846FFF767
:100D300013FF062CF7D131462846FFF743FF00BFCB
:100D4000C160D96B826119640022194658E700BF5F
:100D500070B5C66843690B64AEB903690A460446B8
:100D60000D46014602209847072805D008280FD1D4
:100D700029462046FFF726FF3046296CFFF720FF63
:100D8000281D00F049FB0122FFF73AFF10F060F840
:100D900010F05EF8C2681AB1CA6B0A6400222FE72D
:100DA0009AE700BF704700BF836801460BB101207E
:100DB00018477047012910D009D883B90F2A0ED8D7
:100DC00000EB820218465368009A1360704703399B
:100DD00001298CBF0220012070470846704702207D
:100DE000704700BF00B585B00A46002303A90091F3
:100DF0001946FFF7DFFF039805B05DF804FB00BF5D
:100E0000012910D009D883B90F2A0ED8009900EB18
:100E100082020968516018467047033901298CBF66
:100E2000022001207047084670470220704700BF2B
:100E300010B584B0002303AC039200940A4619460F
:100E4000FFF7DEFF04B010BD70B5D36B136402F181
:100E5000040C05460C46BCE80F00ADF50E7D0DF107
:100E60005C0EAEE80F00BCE80F00AEE80F00BCE877
:100E70000F00AEE80F009CE80F004FF0FF368EE841
:100E80000F00169610E0FFF7D3FF214616A8A847DB
:100E9000034616AA6946082083B9049B984705288B
:100EA00006460CD0092809D026996846FFF70AFEA5
:100EB00003466A460C2116A8002BE4D0092616A882
:100EC000FFF74AFE30460DF50E7D70BD2DE9F04F5F
:100ED0009346CA6C89B00D4652F8041B069200F086
:100EE000030C002B79D00C0C8DF81D400904E4B2E2
:100EF000059102EB840202212F6D8DF81C10BCF1CC
:100F0000020F08BFAA6B17F001070CD005A95846BD
:100F100000F084FB18B9082009B0BDE8F08F092063
:100F200009B0BDE8F08F1668002EEFD000F0080180
:100F30000191B246029764469946B9F1020F48D032
:100F4000B2F800A0568802F10408AA6C26F001034A
:100F50000F2158469F18FFF745FF874237D82AF0E0
:100F600001023A44824294BF00220122730003F03E
:100F700002030AF0010A43EA0A03012B47D0022BBD
:100F800031D0002BCBD114B1002A40F0C98008F138
:100F90000402D2F800A0BAF1000FCED105A958463C
:100FA000029F00F03BFB0028B9D1002FB3D00F21E6
:100FB0005846FFF717FF0E2102465846FFF738FF45
:100FC000674A0F215846FFF733FF0720A8E70022A2
:100FD000CCE7566802F10808B7E7090205918DF8D9
:100FE0001D30032188E7D8F8006026F00043002C6C
:100FF00044D122B1019A002A5AD0002B58D0002E99
:1010000001DA08F10408013308EB8302C1E7ECB907
:10101000CAB1D8F80430D8F80020991C4FEAD2722F
:101020003FF47DAF05F158010133049100F08B804E
:1010300008F10400FFF7BEFD04AB01462846AFF3FC
:101040000080002857D108F10802A2E70D21584678
:10105000FFF7C8FE2B6A8342F5D1AB6A9845F2D1FF
:101060004046FFF7DFFC0F2102465846FFF7E0FE3F
:101070002A4600215846FFF7DBFEA6E70D21584619
:101080000393FFF7AFFE2A6A039B8242B7D1AA6A95
:101090009045B4D100270422C5E90B724244AB62EB
:1010A0006A63D8F80020BA4255DB01220292AAE70F
:1010B000039408F1040A002605F158071C460DE0C8
:1010C00050460497FFF776FD0022014604AB284600
:1010D00001360AF1040AAFF30080E0B9A642EFD16D
:1010E0000D215846FFF77EFE049BC5F82880C5E910
:1010F0000803062014E704460D215846FFF772FE48
:10110000049E2862022C04BFEE6205F12C06C5E99C
:101110000968062004E72346D8F80060039C6EE7C0
:101120004046FFF77FFC08F104020446AA63284604
:10113000AFF3008000283FF4F2AE22460F2158465C
:10114000FFF776FE41E70C4658460D21FFF74AFEB1
:1011500026462862DBE7581C08EB800081E700BFC9
:10116000000000000023B1E60123AFE60223ADE654
:101170002DE9F0430646C3B015461C46042900F28B
:10118000D180DFE801F0AC51CF2A0300002C40F001
:10119000C980102A00F2C6800368DC0600F1E780EF
:1011A00020AF384600F0AAF9B46B394600234FF05F
:1011B000010C0CFA03F22A42204603F1010303D08A
:1011C00050F8042B0A600446042B01F10401F0D10D
:1011D000B463384600F088F999E0032C40F0A2800F
:1011E00094B204EB1243102B4FEA124500F29A809E
:1011F00003681F0700F1C38020AF384600F052F9A2
:10120000B26B07EBC50154B10B46D01A01EBC40118
:10121000E4001D5843F8045B8B42FAD12244B263C8
:10122000384600F01DF972E0012C4FEA124895B2E1
:1012300071D0052C76D108EB0509B9F1200F71D8D2
:10124000B8F10F0F72D8B9F1100F036800F29F8048
:10125000D90708D523F00103304643F0020340F8D4
:10126000483B00F0F1F820AF384600F0EDF8B36BE2
:10127000002D00F0B9806D006A1E07EBC801002543
:101280000132043903EB820253F8040B41F8040FD6
:101290009342F9D1002D00F0A1804146102938BFBA
:1012A00010216B0010396F46013B07EBC101013380
:1012B000043902EB830352F8040B41F8040F9A42FD
:1012C000F9D1012C00F08880B8F10F0FB26302D879
:1012D00020A800F0B5F8384600F0BAF817E00CBBCB
:1012E000806B23461FFA82FC0124371D04FA03F1A8
:1012F00011EA0C0F024604D052F8041B47F82310E1
:1013000010460133102BF1D1AC0400D4B06300209F
:1013100043B0BDE8F08308EB0503102B02D8B8F109
:10132000100F14D1022043B0BDE8F083002DEED0A1
:1013300003685A075CD46F46384600F08DF8B26BEC
:101340006B00A8F11001013B07EBC101AFE7036897
:10135000DA0759D420AF384600F06EF8B36B002D91
:1013600089D10433B363384600F062F8CFE723F045
:101370001003036000F5E87000F0C0F810E723F0F8
:101380000803036000F5A87000F08CF834E7D90773
:1013900008D523F0010343F0020340F8483B00F076
:1013A00053F83368580706D5304623F0040340F855
:1013B000D03B00F051F820AF384600F045F86846C1
:1013C00000F04AF8C8F110025200B36BA9F1100501
:1013D000013A07EBC80153E720AFC2E7012CC0D0A8
:1013E000B8F10F0FB36392D8384600F029F88EE7B2
:1013F00023F0040340F8D03B6F4600F02DF8384648
:1014000000F02AF8B26B9BE7304623F0030340F864
:10141000483B00F011F89DE700F1340191E83800F5
:101420009C46A6464CF8045D90E8FF0FE54600BDDB
:1014300090EC210B704700BF80EC210B704700BF80
:1014400090EC200B704700BF80EC200B704700BF72
:10145000D0EC200B704700BFC0EC200B704700BFE2
:10146000F0EC0201F0EC0211F0EC0221F0EC0231A0
:10147000F0EC0241F0EC0251F0EC0261F0EC027190
:10148000F0EC0281F0EC0291F0EC02A1F0EC02B180
:10149000F0EC02C1F0EC02D1F0EC02E1F0EC02F170
:1014A000704700BFE0EC0201E0EC0211E0EC022129
:1014B000E0EC0231E0EC0241E0EC0251E0EC0261D0
:1014C000E0EC0271E0EC0281E0EC0291E0EC02A1C0
:1014D000E0EC02B1E0EC02C1E0EC02D1E0EC02E1B0
:1014E000E0EC02F1704700BFB0FC0181B0FC01915B
:1014F000B0FC01A1B0FC01B1704700BFA0FC0181AC
:10150000A0FC0191A0FC01A1A0FC01B1704700BFAB
:10151000EC4600B52DE900502DE9FF1F4FF0000308
:101520002DE90C0001A9FFF7D7FBDDF840E012B070
:10153000704700BFEC4600B52DE900502DE9FF1FB4
:101540004FF000032DE90C0001A9FFF701FCDDF8C5
:1015500040E012B0704700BFEC4600B52DE90050E6
:101560002DE9FF1F4FF000032DE90C0001A9FFF743
:1015700011FCDDF840E012B0704700BFEC4600B54A
:101580002DE900502DE9FF1F4FF000032DE90C005D
:1015900001ABFFF7D5FBDDF840E012B0704700BFAC
:1015A000EC4600B52DE900502DE9FF1F4FF0000378
:1015B0002DE90C0001AAFFF747FCDDF840E012B06E
:1015C000704700BF027A03467AB9427AA2B14168F5
:1015D000013A10B44272086803220C1D1A7202020A
:1015E0005C60000E10BC1A6070470068013A1A7205
:1015F00002021A60000E7047B020704700B585B037
:10160000002303AA009219460C22FFF7D3FB03988C
:1016100005B05DF804FB00BFF0E700BF2DE9F04323
:10162000064685B00D464FF000082846FFF7CAFF72
:10163000B028044600F0DA80070646D500F0F00333
:10164000802B5ED0B02B73D01BD8902B00F09B80EA
:10165000A02B12D1C34303F007034FF47F621A415A
:10166000010702F47F6201D542F48042002319464B
:101670003046FFF77DFD0028D7D0092005B0BDE832
:10168000F083C02B6DD1C62800F09380C72800F0EE
:10169000B28000F0F803C02B00F0D280C82800F020
:1016A000DD80C928E9D12846FFF78CFF020300F04E
:1016B0000F0002F47022013002430121052330465D
:1016C000FFF756FD0028B0D0D7E78300DBB21F1D1F
:1016D0000DF10C0900231946CDF800900D2230467B
:1016E000FFF768FB039BCDF8009060064CBFDF1B43
:1016F000FF1800230D22194630460397FFF780FBA1
:1017000093E72846FFF75EFF24022043B0F5004F21
:10171000B3D004010023A2B219463046FFF728FDDA
:101720000028AAD114F4004F18BF4FF001087CE73D
:10173000B12851D0B22800F0AD80B3286DD000F0B0
:10174000FC03B42B99D000F007020132012342F4CC
:10175000002219463046FFF70BFD00283FF465AF25
:101760008BE700F0F803D02B87D100F0070201329D
:10177000052342F4002201213046FFF7F9FC00283E
:101780003FF453AF79E700F00D030D2B3FF475AF35
:1017900003AF002300F00F02194600973046FFF711
:1017A00009FB002300970D2219463046FFF728FB5E
:1017B0003BE72846FFF706FF020300F00F00013069
:1017C00002F470220323024319463046FFF7D0FC8F
:1017D00000283FF42AAF50E72846FFF7F3FE431EE8
:1017E000DBB20E2B02467FF641AF46E7B8F1000FA1
:1017F00040D0002042E72846FFF7E4FE431EDBB25C
:101800000E2B02463FF639AF002304213046FFF786
:10181000AFFC00283FF409AF2FE72846FFF7D2FEC0
:10182000020300F00F00013002F470220123024392
:1018300019463046FFF79CFC00283FF4F6AE1CE743
:1018400000F00F020132032342F4202219463046F1
:10185000FFF78EFC00283FF4E8AE0EE72846FFF7BE
:10186000B1FE00F0F00200F00F031032013343EA42
:10187000023222E703AC434641460E220094304632
:10188000FFF798FA009443460F2241463046FFF78F
:10189000B7FAAEE700230DF10C090D221946CDF879
:1018A00000903046FFF786FA2846FFF78BFE0206C7
:1018B000039C4FF002070BD500F07F00B8400444B2
:1018C00028460394FFF77EFE030607F10707F3D4CB
:1018D00000FA07F204F50174224400230392CDF8C4
:1018E00000900D2219463046FFF78AFA9DE600BFA8
:1018F00010B5C26C536884B04FF0030C08321C0260
:1019000008461B0E01A9019402928DF80CC08DF8B7
:101910000D30FFF783FE04B010BD00BF08B5FFF720
:101920007BFE806C08BD00BF08B5FFF775FEC06C7C
:10193000C379023300EB830008BD00BF704700BFCE
:1019400010F8012B11F8013B012A28BF9A42F7D069
:10195000D01A7047034613F8012B002AFBD1181A3E
:101960000138704700000000000000000000000087
:1019700001F0FF01102A2BDB10F0070F08D010F840
:10198000013B013A8B422DD010F0070F42B3F6D144
:10199000F0B441EA012141EA014122F007047FF05D
:1019A00000070023F0E80256083C85EA010586EAB4
:1019B000010685FA47F5A3FA87F586FA47F6A5FAF0
:1019C00087F68EB9EED1F0BC01F0FF0102F00702FC
:1019D00032B110F8013B013A83EA010313B1F8D1A7
:1019E0000020704701387047002D06BF3546033888
:1019F000073815F0010F07D1013015F4807F02BFC1
:101A0000013015F4C03F0130F0BC0138704700BF11
:101A100070B54FF0FF0C4CF4E06C1CEA11541DBF84
:101A20001CEA135594EA0C0F95EA0C0F00F0DEF84F
:101A30002C4481EA030621EA4C5123EA4C5350EA34
:101A4000013518BF52EA033541F4801143F4801385
:101A500038D0A0FB02CE4FF00005E1FB02E506F016
:101A60000042E0FB03E54FF00006E1FB03569CF06B
:101A7000000F18BF4EF0010EA4F1FF04B6F5007F71
:101A800064F5407404D25FEA4E0E6D4146EB0606E3
:101A900042EAC62141EA55514FEAC52040EA5E506C
:101AA0004FEACE2EB4F1FD0C88BFBCF5E06F1ED816
:101AB000BEF1004F08BF5FEA500E50F1000041EB4D
:101AC000045170BD06F0004646EA010140EA0200FA
:101AD00081EA0301B4EB5C04C2BFD4EB0C0541EA1C
:101AE000045170BD41F480114FF0000E013C00F331
:101AF000AB8014F1360FDEBF002001F0004170BD55
:101B0000C4F10004203C35DA0C341BDC04F114046D
:101B1000C4F1200500FA05F320FA04F001FA05F2F9
:101B200040EA020001F0004221F0004110EBD370C6
:101B300021FA04F642EB06015EEA430E08BF20EAF2
:101B4000D37070BDC4F10C04C4F1200500FA04F395
:101B500020FA05F001FA04F240EA020001F0004127
:101B600010EBD37041F100015EEA430E08BF20EA9A
:101B7000D37070BDC4F1200500FA05F24EEA020EE2
:101B800020FA04F301FA05F243EA020321FA04F011
:101B900001F0004121FA04F220EA020000EBD370C8
:101BA0005EEA430E08BF20EAD37070BD94F0000FC8
:101BB0000FD101F00046400041EB010111F4801FFC
:101BC00008BF013CF7D041EA060195F0000F18BFAD
:101BD000704703F00046520043EB030313F4801FE9
:101BE00008BF013DF7D043EA0603704794EA0C0FA3
:101BF0000CEA135518BF95EA0C0F0CD050EA4106B9
:101C000018BF52EA4306D1D181EA030101F0004135
:101C10004FF0000070BD50EA410606BF104619465D
:101C200052EA430619D094EA0C0F02D150EA013669
:101C300013D195EA0C0F05D152EA03361CBF1046AA
:101C400019460AD181EA030101F0004141F0FE4149
:101C500041F470014FF0000070BD41F0FE4141F4CD
:101C6000780170BD70B54FF0FF0C4CF4E06C1CEACD
:101C700011541DBF1CEA135594EA0C0F95EA0C0F82
:101C800000F0A7F8A4EB050481EA030E52EA03353D
:101C90004FEA013100F088804FEA03334FF080555E
:101CA00045EA131343EA12634FEA022245EA11158B
:101CB00045EA10654FEA00260EF000419D4208BF3C
:101CC000964244F1FD0404F5407402D25B084FEAE9
:101CD0003202B61A65EB03055B084FEA32024FF495
:101CE00080104FF4002CB6EB020E75EB030E22BFF2
:101CF000B61A754640EA0C005B084FEA3202B6EBB2
:101D0000020E75EB030E22BFB61A754640EA5C0060
:101D10005B084FEA3202B6EB020E75EB030E22BFF0
:101D2000B61A754640EA9C005B084FEA3202B6EBF1
:101D3000020E75EB030E22BFB61A754640EADC00B0
:101D400055EA060E18D04FEA051545EA16754FEA12
:101D500006164FEAC30343EA52734FEAC2025FEA30
:101D60001C1CC0D111F4801F0BD141EA00014FF0BF
:101D700000004FF0004CB6E711F4801F04BF014390
:101D80000020B4F1FD0C88BFBCF5E06F3FF6AFAEAC
:101D9000B5EB030C04BFB6EB020C5FEA500C50F13C
:101DA000000041EB045170BD0EF0004E4EEA1131BF
:101DB00014EB5C04C2BFD4EB0C0541EA045170BDC6
:101DC00041F480114FF0000E013C90E645EA060E0A
:101DD0008DE60CEA135594EA0C0F08BF95EA0C0F38
:101DE0003FF43BAF94EA0C0F0AD150EA01347FF480
:101DF00034AF95EA0C0F7FF425AF104619462CE757
:101E000095EA0C0F06D152EA03353FF4FDAE1046B9
:101E1000194622E750EA410618BF52EA43067FF40A
:101E2000C5AE50EA41047FF40DAF52EA43057FF49A
:101E3000EBAE12E74FEA410C7FEA6C5C02D150EA4C
:101E4000013C0AD14FEA430C7FEA6C5C02D152EAB2
:101E5000033C02D14FF0000070474FF00100704783
:101E60004FEA410212F5001215D211D56FF47873C2
:101E7000B3EB625212D94FEAC12343F0004343EA65
:101E8000505311F0004F23FA02F018BF4042704740
:101E90004FF00000704750EA013005D111F00040CA
:101EA00008BF6FF0004070474FF00000704700BF60
:101EB00080B483B000AF786000BF0C37BD465DF8DA
:101EC000047B704780B500AF024800F027F800BFE0
:101ED00080BD00BF6808002080B500AF00F0A8F802
:101EE00000BF80BD80B584B000AFF860C7E90023B3
:101EF000074B1B685A1C06490A60064A13600022F9
:101F00000449054804F0E6FC00BF1037BD4680BD1B
:101F10006408002060080020CC070020B0B58AB01B
:101F200002AFF861F86901F06BFF0346002B01D0A6
:101F300000F09AFAFB694FF461225A60F86901F0E7
:101F40000FFF0346002B01D000F08EFAF86900F075
:101F500033F92B4C3B46184605F05EFF25463C46C0
:101F60000FCC0FC523682B60254B0022002125488C
:101F700003F098FD0346002B01D000F075FA214BC9
:101F8000214A2249224803F065FE0346002B01D076
:101F900000F06AFA08F01AFA02461E4B1C491E4865
:101FA00003F004FF0346002B01D000F05DFA1B484C
:101FB00008F006FA1A4B00931A4A4FF00003114931
:101FC000194803F027FF0346002B01D000F04CFA1C
:101FD0000B4B01220B49154803F022FB0346002B53
:101FE00001D000F041FA1049104803F085FB034688
:101FF000002B01D000F038FA00BF2037BD46B0BD3D
:102000007C07002090070020185C01081C5C010878
:10201000C4070020285C0108CC07002060080020CD
:10202000E51E000880969800D0070020D807002001
:1020300080B500AF034A4FF00003034803F0D0FB24
:1020400000BF80BD80841E00D8070020B0B584B0DA
:1020500000AF786039603B68002B02D14FF0FF334E
:102060001EE000F011FCF860FB680F4AA2FB03239E
:102070009B0900221C4615463B68C3E90045FA68E7
:10208000094BA3FB02139B094FF47A7101FB03F385
:10209000D31A064A02FB03F31A463B689A600023F0
:1020A00018461037BD46B0BDD34D621040420F00F8
:1020B00080B483B000AF7860012318460C37BD466A
:1020C0005DF8047B704780B483B000AF7860012373
:1020D00018460C37BD465DF8047B704780B586B066
:1020E00000AFF860B9607A603B60FB68D3F88C326F
:1020F0007B617B689AB26423B968786901F0B2FEAB
:102100000346002B07D03B68002B02D03B6801221E
:102110001A70002306E03B68002B02D03B680022C7
:102120001A707B6818461837BD4680BD80B58AB0E6
:1021300000AFF860B9607A603B60FB68D3F88C321E
:102140003B6200F0A1FBF86100237B621BE000F022
:102150009BFB0246FB69D31ABB61BB693A689A4292
:1021600016DDBB693A68D31A7B61BA687B6AD118FD
:102170007B690122386A01F000FF0346002B09D178
:102180007B6A01337B627A6A7B689A42DFD302E022
:1021900000BF00E000BF3B6B002B08D07B6A002B28
:1021A0000CBF01230023DBB21A463B6B1A707B6A1B
:1021B00018462837BD4680BD80B584B002AF786030
:1021C000064B0193064B0093064B074A79680120A2
:1021D00006F028FA00BF0837BD4680BD2D21000853
:1021E000DD200008C7200008B120000880B483B0BB
:1021F00000AF78604FF06043D3F8803E03F00103F6
:10220000002B07D04FF06043D3F8003E03F00103EA
:10221000002B01D17B680CE04FF060431B68002B62
:1022200001D17B6805E04FF060437A68D2B21A7042
:102230007B6818460C37BD465DF8047B704780B557
:1022400000AF00F0BBFA00F009F800F09FF800F0D2
:1022500073F8FFF737FEFFF73FFEFCE780B594B059
:1022600000AF07F11C033422002118460FF0BEFC1A
:1022700007F1080300221A605A609A60DA601A6156
:1022800000237B602A4B1B6C294A43F08053136464
:10229000274B1B6C03F080537B607B6800233B6003
:1022A000244B1B6823F44043224A43F480431360C9
:1022B000204B1B6803F440433B603B680223FB61F7
:1022C0000123BB621023FB6202237B630023BB63F9
:1022D0001023FB634FF4A8733B6404237B64022345
:1022E000BB640223FB6407F11C03184601F09AFA51
:1022F0000346002B01D000F0B7F80F23BB60022388
:10230000FB6000233B614FF480537B610023BB6182
:1023100007F108030221184600F03AFF0346002B9C
:1023200001D000F0A1F800BF5037BD4680BD00BF0E
:10233000003802400070004080B500AF114B124AD7
:102340001A60104B4FF4E1325A600E4B00229A6033
:102350000C4B0022DA600B4B00221A61094B0C2255
:102360005A61084B00229A61064B0022DA61054847
:1023700001F0F6FC0346002B01D000F075F800BF19
:1023800080BD00BF680800200044004080B58AB0CE
:1023900000AF07F1140300221A605A609A60DA60F5
:1023A0001A6100233B612D4B1B6B2C4A43F0040345
:1023B00013632A4B1B6B03F004033B613B6900234F
:1023C000FB60264B1B6B254A43F080031363234BB2
:1023D0001B6B03F08003FB60FB680023BB601F4B9B
:1023E0001B6B1E4A43F0010313631C4B1B6B03F072
:1023F0000103BB60BB6800237B60184B1B6B174A53
:1024000043F002031363154B1B6B03F002037B6065
:102410007B6800222021124800F0A0FE4FF40053F8
:102420007B614FF40413BB610023FB6107F11403CC
:1024300019460C4800F00AFC20237B610123BB6194
:102440000023FB6100233B6207F114031946044893
:1024500000F0FCFB00BF2837BD4680BD00380240BD
:10246000000002400008024080B400AF72B600BF16
:10247000FEE7000080B582B000AF00237B60104B08
:102480005B6C0F4A43F4804353640D4B5B6C03F465
:1024900080437B607B6800233B60094B1B6C084AD0
:1024A00043F080531364064B1B6C03F080533B6076
:1024B0003B68072000F0E8FA00BF0837BD4680BD42
:1024C0000038024080B58AB000AF786007F114038D
:1024D00000221A605A609A60DA601A617B681B6891
:1024E0001D4A934233D100233B611C4B1B6C1B4A9A
:1024F00043F400331364194B1B6C03F400333B614A
:102500003B690023FB60154B1B6B144A43F001032E
:102510001363124B1B6B03F00103FB60FB680C237E
:102520007B610223BB610023FB6103233B62072322
:102530007B6207F114031946094800F087FB00226B
:102540000021262000F0ABFA262000F0C4FA00BFDC
:102550002837BD4680BD00BF00440040003802401F
:102560000000024080B582B000AF78607B681B68D5
:10257000094A93420CD1094B1B6C084A23F40033DF
:1025800013640C21064800F0F5FC262000F0B1FA97
:1025900000BF0837BD4680BD0044004000380240FF
:1025A0000000024080B400AFFEE780B400AFFEE759
:1025B00080B400AFFEE780B400AFFEE780B400AFA8
:1025C000FEE780B400AF00BFBD465DF8047B7047F6
:1025D00080B400AF00BFBD465DF8047B704780B497
:1025E00000AF00BFBD465DF8047B704780B500AF0B
:1025F00000F036F900BF80BD80B500AF024801F0A1
:1026000053FD00BF80BD00BF6808002080B400AF4C
:1026100001231846BD465DF8047B704780B582B043
:1026200000AF786039600FF0B9FB034616221A60DC
:102630004FF0FF3318460837BD4680BD80B582B0E5
:1026400000AF78604FF0FF317868FFF7E7FFFEE7F3
:1026500080B586B000AFF860B9607A6000237B6116
:102660000AE0AFF300800146BB685A1CBA60CAB2E8
:102670001A707B6901337B617A697B689A42F0DB6F
:102680007B6818461837BD4680BD80B586B000AF60
:10269000F860B9607A6000237B6109E0BB685A1C6E
:1026A000BA601B781846FFF7A1FD7B6901337B6197
:1026B0007A697B689A42F1DB7B6818461837BD4619
:1026C00080BD80B483B000AF78604FF0FF33184610
:1026D0000C37BD465DF8047B704780B483B000AF13
:1026E000786039603B684FF400525A600023184606
:1026F0000C37BD465DF8047B704780B483B000AFF3
:102700007860012318460C37BD465DF8047B70479E
:1027100080B485B000AFF860B9607A6000231846D5
:102720001437BD465DF8047B7047000080B586B065
:1027300000AF7860144A154BD31A7B617B693B610B
:10274000134B1B68002B02D1114B124A1A60104B1D
:102750001A687B6813443A699A4207D20FF01EFB4D
:1027600003460C221A604FF0FF3309E0084B1B6848
:10277000FB60074B1A687B681344054A1360FB68CB
:1027800018461837BD4680BD000002200004000036
:10279000B4080020B851002080B400AF064BD3F835
:1027A0008830054A43F47003C2F8883000BFBD4644
:1027B0005DF8047B704700BF00ED00E080B500AF1E
:1027C0000E4B1B680D4A43F4007313600B4B1B68E0
:1027D0000A4A43F480631360084B1B68074A43F4BA
:1027E00080731360032000F04FF9002000F008F818
:1027F000FFF740FE0023184680BD00BF003C0240AA
:1028000080B582B000AF7860124B1A68124B1B780B
:1028100019464FF47A73B3FBF1F3B2FBF3F31846A6
:1028200000F075F90346002B01D001230EE07B6810
:102830000F2B0AD8002279684FF0FF3000F02FF9F3
:10284000064A7B681360002300E00123184608371E
:10285000BD4680BD040000200C00002008000020C0
:1028600080B400AF064B1B781A46064B1B68134416
:10287000044A136000BFBD465DF8047B704700BF8B
:102880000C000020B808002080B400AF034B1B6888
:102890001846BD465DF8047B704700BFB8080020AD
:1028A00080B485B000AF78607B6803F00703FB60FD
:1028B0000C4BDB68BB60BA684FF6FF031340BB608C
:1028C000FB681A02BB68134343F0BF6343F4003351
:1028D000BB60044ABB68D36000BF1437BD465DF8D7
:1028E000047B704700ED00E080B400AF044BDB6870
:1028F0001B0A03F007031846BD465DF8047B7047CA
:1029000000ED00E080B483B000AF0346FB7197F99F
:102910000730002B0BDBFB7903F01F02074997F907
:1029200007305B09012000FA02F241F8232000BFC2
:102930000C37BD465DF8047B704700BF00E100E046
:1029400080B483B000AF0346FB7197F90730002BCA
:1029500012DBFB7903F01F020A4997F907305B0984
:10296000012000FA02F2203341F82320BFF34F8FF9
:1029700000BFBFF36F8F00BF00BF0C37BD465DF8CF
:10298000047B704700E100E080B483B000AF0346F1
:102990003960FB7197F90730002B0ADB3B68DAB22C
:1029A0000C4997F907301201D2B20B4483F8002387
:1029B0000AE03B68DAB20849FB7903F00F03043BF5
:1029C0001201D2B20B441A7600BF0C37BD465DF837
:1029D000047B704700E100E000ED00E080B489B0C6
:1029E00000AFF860B9607A60FB6803F00703FB6131
:1029F000FB69C3F10703042B28BF0423BB61FB69F8
:102A00000433062B02D9FB69033B00E000237B6102
:102A10004FF0FF32BB6902FA03F3DA43BB681A4096
:102A20007B699A404FF0FF317B6901FA03F3D94388
:102A30007B680B40134318462437BD465DF8047B82
:102A40007047000080B582B000AF78607B68013BC2
:102A5000B3F1807F01D301230FE00A4A7B68013B79
:102A600053600F214FF0FF30FFF78EFF054B002220
:102A70009A60044B07221A60002318460837BD46A7
:102A800080BD00BF10E000E080B582B000AF78608C
:102A90007868FFF705FF00BF0837BD4680BD80B5E9
:102AA00086B000AF0346B9607A60FB7300237B6198
:102AB000FFF71AFF78617A68B9687869FFF78EFFC7
:102AC000024697F90F3011461846FFF75DFF00BF29
:102AD0001837BD4680BD80B582B000AF0346FB719C
:102AE00097F907301846FFF70DFF00BF0837BD46BE
:102AF00080BD80B582B000AF0346FB7197F9073007
:102B00001846FFF71DFF00BF0837BD4680BD80B5E2
:102B100082B000AF78607868FFF794FF03461846EC
:102B20000837BD4680BD80B584B000AF78607B6853
:102B30009B6DFB60FFF7A8FEB8607B6893F83530AB
:102B4000DBB2022B08D07B6880225A657B680022AA
:102B500083F83420012352E07B681B681A687B6885
:102B60001B6822F016021A607B681B685A697B6832
:102B70001B6822F080025A617B681B6C002B03D11A
:102B80007B689B6C002B07D07B681B681A687B688E
:102B90001B6822F008021A607B681B681A687B6851
:102BA0001B6822F001021A6013E0FFF76DFE024677
:102BB000BB68D31A052B0CD97B6820225A657B6829
:102BC000032283F835207B68002283F83420032316
:102BD00015E07B681B681B6803F00103002BE4D140
:102BE0007B68DB6D3F229A40FB689A607B6801221C
:102BF00083F835207B68002283F8342000231846B0
:102C00001037BD4680BD80B483B000AF78607B686C
:102C100093F83530DBB2022B04D07B6880225A65F2
:102C200001230CE07B68052283F835207B681B6854
:102C30001A687B681B6822F001021A60002318469C
:102C40000C37BD465DF8047B7047000080B489B046
:102C500000AF7860396000237B6100233B61002373
:102C6000BB610023FB6165E10122FB6902FA03F30A
:102C70007B613B681B687A6913403B613A697B69F9
:102C80009A4240F054813B685B6803F00303012BD8
:102C900005D03B685B6803F00303022B30D17B68EF
:102CA0009B68BB61FB695B00032202FA03F3DB4311
:102CB000BA691340BB613B68DA68FB695B0002FAE2
:102CC00003F3BA691343BB617B68BA699A607B6896
:102CD0005B68BB610122FB6902FA03F3DB43BA695B
:102CE0001340BB613B685B681B0903F00102FB6991
:102CF00002FA03F3BA691343BB617B68BA695A608D
:102D00003B685B6803F00303032B17D07B68DB6829
:102D1000BB61FB695B00032202FA03F3DB43BA6980
:102D20001340BB613B689A68FB695B0002FA03F3DE
:102D3000BA691343BB617B68BA69DA603B685B6858
:102D400003F00303022B23D1FB69DA087B68083206
:102D500053F82230BB61FB6903F007039B000F228D
:102D600002FA03F3DB43BA691340BB613B681A699B
:102D7000FB6903F007039B0002FA03F3BA691343EC
:102D8000BB61FB69DA087B680832B96943F8221035
:102D90007B681B68BB61FB695B00032202FA03F3DB
:102DA000DB43BA691340BB613B685B6803F0030215
:102DB000FB695B0002FA03F3BA691343BB617B68EA
:102DC000BA691A603B685B6803F44033002B00F07B
:102DD000AE800023FB605D4B5B6C5C4A43F4804338
:102DE00053645A4B5B6C03F48043FB60FB68584AA6
:102DF000FB699B08023352F82330BB61FB6903F087
:102E000003039B000F2202FA03F3DB43BA6913406A
:102E1000BB617B684F4A934225D07B684E4A934200
:102E20001FD07B684D4A934219D07B684C4A93422D
:102E300013D07B684B4A93420DD07B684A4A934239
:102E400007D07B68494A934201D106230CE007234F
:102E50000AE0052308E0042306E0032304E002233C
:102E600002E0012300E00023FA6902F0030292006D
:102E70009340BA691343BB613549FB699B08023330
:102E8000BA6941F823203A4B9B68BB613B69DB433D
:102E9000BA691340BB613B685B6803F48013002B85
:102EA00003D0BA693B691343BB61314ABB69936084
:102EB0002F4BDB68BB613B69DB43BA691340BB61E5
:102EC0003B685B6803F40013002B03D0BA693B69CD
:102ED0001343BB61264ABB69D360254B5B68BB616A
:102EE0003B69DB43BA691340BB613B685B6803F431
:102EF0000033002B03D0BA693B691343BB611C4A02
:102F0000BB6953601A4B1B68BB613B69DB43BA6901
:102F10001340BB613B685B6803F48033002B03D034
:102F2000BA693B691343BB61114ABB691360FB6912
:102F30000133FB61FB690F2B7FF696AE00BF00BF2C
:102F40002437BD465DF8047B704700BF003802405F
:102F50000038014000000240000402400008024026
:102F6000000C024000100240001402400018024011
:102F7000003C014080B487B000AF78603960002326
:102F80003B610023FB600023BB6000237B61C7E043
:102F900001227B6902FA03F33B613A683B69134003
:102FA000FB60FA683B699A4240F0B780624A7B69ED
:102FB0009B08023352F82330BB607B6903F00303A4
:102FC0009B000F2202FA03F3BA681340BB607B68D0
:102FD0005A4A934225D07B68594A93421FD07B6856
:102FE000584A934219D07B68574A934213D07B6862
:102FF000564A93420DD07B68554A934207D07B686E
:10300000544A934201D106230CE007230AE005232A
:1030100008E0042306E0032304E0022302E0012386
:1030200000E000237A6902F0030292009340BA683C
:103030009A4232D1484B1A68FB68DB434649134039
:103040000B60454B5A68FB68DB43434913404B60B8
:10305000414BDA68FB68DB433F491340CB603E4B92
:103060009A68FB68DB433C4913408B607B6903F043
:1030700003039B000F2202FA03F3BB602E4A7B6915
:103080009B08023352F82310BB68DA432A487B6955
:103090009B080A40023340F823207B681A687B694A
:1030A0005B00032101FA03F3DB431A407B681A60DB
:1030B0007B69DA087B68083253F822107B6903F0D9
:1030C00007039B000F2202FA03F3DB437A69D2085D
:1030D00019407B68083243F822107B68DA687B6904
:1030E0005B00032101FA03F3DB431A407B68DA60DB
:1030F0007B685A6801217B6901FA03F3DB431A40BC
:103100007B685A607B689A687B695B00032101FADF
:1031100003F3DB431A407B689A607B6901337B6170
:103120007B690F2B7FF634AF00BF00BF1C37BD4655
:103130005DF8047B704700BF00380140000002408A
:103140000004024000080240000C0240001002404F
:103150000014024000180240003C014080B483B0DB
:1031600000AF78600B467B8013467B707B78002B2A
:1031700003D07A887B689A6103E07B881A047B68B5
:103180009A6100BF0C37BD465DF8047B70470000B4
:1031900080B584B000AF786039607B68002B01D1C6
:1031A0000123CCE0684B1B6803F00F033A689A4296
:1031B0000CD9654B3A68D2B21A70634B1B6803F0A6
:1031C0000F033A689A4201D00123B8E07B681B687C
:1031D00003F00203002B20D07B681B6803F004037C
:1031E000002B05D0594B9B68584A43F4E053936039
:1031F0007B681B6803F00803002B05D0534B9B68CA
:10320000524A43F460439360504B9B6823F0F002B2
:103210007B689B684D4913438B607B681B6803F098
:103220000103002B44D07B685B68012B07D1474B1F
:103230001B6803F40033002B19D101237FE07B6866
:103240005B68022B03D07B685B68032B07D13F4B85
:103250001B6803F00073002B09D101236FE03B4B87
:103260001B6803F00203002B01D1012367E0374BF9
:103270009B6823F003027B685B68344913438B60CF
:10328000FFF702FBF8600AE0FFF7FEFA0246FB6870
:10329000D31A41F28832934201D903234FE02B4BDA
:1032A0009B6803F00C027B685B689B009A42EBD141
:1032B000254B1B6803F00F033A689A420CD2224B4D
:1032C0003A68D2B21A70204B1B6803F00F033A68B9
:1032D0009A4201D0012332E07B681B6803F00403AB
:1032E000002B08D0194B9B6823F4E0527B68DB6805
:1032F000164913438B607B681B6803F00803002B9F
:1033000009D0124B9B6823F460427B681B69DB0089
:103310000E4913438B6000F055F802460B4B9B6837
:103320001B0903F00F030A49CB5C22FA03F3094A95
:103330001360094B1B681846FFF762FA0023184612
:103340001037BD4680BD00BF003C0240003802403F
:10335000545C0108040000200800002080B400AF85
:10336000034B1B681846BD465DF8047B704700BFE1
:103370000400002080B500AFFFF7F0FF0246054BC8
:103380009B689B0A03F007030349CB5C22FA03F313
:10339000184680BD00380240645C010880B500AF6B
:1033A000FFF7DCFF0246054B9B685B0B03F007034E
:1033B0000349CB5C22FA03F3184680BD0038024073
:1033C000645C01082DE9B04FAEB000AF0023C7F830
:1033D000AC300023C7F8B4300023C7F8A83000236E
:1033E000C7F8A4300023C7F8B030CB4B9B6803F07C
:1033F0000C030C2B00F2068201A252F823F000BF4E
:10340000353400080538000805380008053800087C
:103410003D34000805380008053800080538000864
:10342000453400080538000805380008053800084C
:1034300035360008B94BC7F8B030E7E1B84BC7F8EC
:10344000B030E3E1B44B5B6803F03F03C7F8AC3046
:10345000B14B5B6803F48003002B71D0AE4B5B680B
:103460009B090022C7F89830C7F89C20D7F89830FD
:10347000C3F30803C7F890300023C7F89430D7E9A6
:10348000244522462B464FF000004FF00001590121
:1034900041EAD261500102460B462146511A396475
:1034A000294663EB01037B644FF000024FF00003F9
:1034B000D7E9108949468B01414643EA9163414669
:1034C0008A014146511AB963494663EB0103FB6324
:1034D0004FF000024FF00003D7E90E894946CB00B8
:1034E000414643EA51734146CA0010461946034615
:1034F00022469B183B632B460A4642EB03037B6341
:103500004FF000024FF00003D7E90C4529464B026B
:10351000214643EAD15321464A0210461946D7F8BC
:10352000AC300022C7F88830C7F88C20D7E92223B6
:10353000FDF702F902460B461346C7F8B43067E0C0
:10354000754B5B689B090022C7F88030C7F8842060
:10355000D7F88030C3F30803BB670023FB67D7E9C4
:103560001E4522462B464FF000004FF00001590146
:1035700041EAD261500102460B462146511AB96216
:10358000294663EB0103FB624FF000024FF000039A
:10359000D7E90A8949468B01414643EA916341468E
:1035A0008A014146B2EB010A494663EB010B4FF039
:1035B00000024FF000034FEACB0343EA5A734FEA8D
:1035C000CA0292469B4623461AEB03033B622B46F4
:1035D0004BEB03037B624FF000024FF00003D7E98F
:1035E000084529468B02214643EA915321468A0227
:1035F00010461946D7F8AC3000223B677A67D7E906
:103600001C23FDF799F802460B461346C7F8B43061
:10361000414B5B681B0C03F0030301335B00C7F8ED
:10362000A830D7F8B420D7F8A830B2FBF3F3C7F826
:10363000B030EBE0384B5B6803F03F03C7F8AC30C9
:10364000354B5B6803F48003002B6BD0324B5B6817
:103650009B090022BB66FA66BB6EC3F308033B6698
:1036600000237B66D7E9184522462B464FF0000021
:103670004FF00001590141EAD261500102460B4668
:103680002146511AB961294663EB0103FB614FF0F2
:1036900000024FF00003D7E906AB59468B015146B3
:1036A00043EA916351468A015146B2EB01085946FB
:1036B00063EB01094FF000024FF000034FEAC9032A
:1036C00043EA58734FEAC80290469946234618EBDE
:1036D00003033B612B4649EB03037B614FF0000280
:1036E0004FF00003D7E9044529464B02214643EA3F
:1036F000D15321464A0210461946D7F8AC30002271
:10370000BB65FA65D7E91623FDF716F802460B46A6
:103710001346C7F8B43065E0003802400024F400D6
:1037200000127A003D4B5B689B0900221846114647
:10373000C0F308033B6500237B65D7E91489424643
:103740004B464FF000004FF00001590141EAD261B1
:10375000500102460B464146511AB960494663EB97
:103760000103FB604FF000024FF00003D7E902AB0A
:1037700059468B01514643EA916351468A015146AD
:10378000541A594663EB01054FF000024FF0000355
:10379000EB0043EA5473E20014461D464346E31827
:1037A0003B604B4645EB03037B604FF000024FF05C
:1037B0000003D7E9004529468B02214643EA91538D
:1037C00021468A0210461946D7F8AC300022BB6465
:1037D000FA64D7E91223FCF7AFFF02460B46134603
:1037E000C7F8B4300D4B5B681B0F03F00703C7F835
:1037F000A430D7F8B420D7F8A430B2FBF3F3C7F85D
:10380000B03003E0064BC7F8B03000BFD7F8B03097
:103810001846B837BD46BDE8B08F00BF003802403B
:103820000024F40080B586B000AF78607B68002B80
:1038300001D101238DE27B681B6803F00103002B9B
:1038400000F08380944B9B6803F00C03042B19D089
:10385000914B9B6803F00C03082B06D18E4B5B68E1
:1038600003F48003B3F5800F0CD08B4B9B6803F0FF
:103870000C030C2B12D1884B5B6803F48003B3F567
:10388000800F0BD1844B1B6803F40033002B5BD0FB
:103890007B685B68002B57D101235AE27B685B6829
:1038A000B3F5803F06D17C4B1B687B4A43F48033E1
:1038B00013601DE07B685B68B3F5A02F0CD1764BDD
:1038C0001B68754A43F480231360734B1B68724A6C
:1038D00043F4803313600BE06F4B1B686E4A23F494
:1038E000803313606C4B1B686B4A23F48023136096
:1038F0007B685B68002B13D0FEF7C6FF386108E0D9
:10390000FEF7C2FF02463B69D31A642B01D9032399
:103910001FE2614B1B6803F40033002BF0D014E06E
:10392000FEF7B2FF386108E0FEF7AEFF02463B69E2
:10393000D31A642B01D903230BE2574B1B6803F402
:103940000033002BF0D100E000BF7B681B6803F060
:103950000203002B6FD0504B9B6803F00C03002B2D
:1039600017D04D4B9B6803F00C03082B05D14A4B35
:103970005B6803F48003002B0BD0474B9B6803F07C
:103980000C030C2B1CD1444B5B6803F48003002B0D
:1039900016D1414B1B6803F00203002B05D07B6856
:1039A000DB68012B01D00123D3E13B4B1B6823F0E3
:1039B000F8027B681B69DB00374913430B603AE070
:1039C0007B68DB68002B20D0344B01221A60FEF7A5
:1039D0005BFF386108E0FEF757FF02463B69D31AE8
:1039E000022B01D90323B4E12B4B1B6803F0020324
:1039F000002BF0D0284B1B6823F0F8027B681B6972
:103A0000DB00254913430B6015E0244B00221A60AC
:103A1000FEF73AFF386108E0FEF736FF02463B69E1
:103A2000D31A022B01D9032393E11B4B1B6803F02C
:103A30000203002BF0D17B681B6803F00803002B06
:103A400036D07B685B69002B16D0154B01221A60BB
:103A5000FEF71AFF386108E0FEF716FF02463B69E1
:103A6000D31A022B01D9032373E10B4B5B6F03F0D5
:103A70000203002BF0D01BE0094B00221A60FEF776
:103A800003FF38610EE0FEF7FFFE02463B69D31AE2
:103A9000022B07D903235CE10038024000004742B3
:103AA000800E47428A4B5B6F03F00203002BEAD182
:103AB0007B681B6803F00403002B00F09780002351
:103AC000FB75834B1B6C03F08053002B0FD100233D
:103AD000BB607F4B1B6C7E4A43F0805313647C4B6E
:103AE0001B6C03F08053BB60BB680123FB75794BF3
:103AF0001B6803F48073002B18D1764B1B68754A42
:103B000043F480731360FEF7BFFE386108E0FEF7F0
:103B1000BBFE02463B69D31A022B01D9032318E1ED
:103B20006C4B1B6803F48073002BF0D07B689B68A0
:103B3000012B06D1664B1B6F654A43F001031367E7
:103B40001CE07B689B68052B0CD1614B1B6F604AA6
:103B500043F0040313675E4B1B6F5D4A43F00103A0
:103B600013670BE05A4B1B6F594A23F0010313678D
:103B7000574B1B6F564A23F0040313677B689B68FF
:103B8000002B15D0FEF780FE38610AE0FEF77CFEC0
:103B900002463B69D31A41F28832934201D903238A
:103BA000D7E04B4B1B6F03F00203002BEED014E069
:103BB000FEF76AFE38610AE0FEF766FE02463B69E0
:103BC000D31A41F28832934201D90323C1E0404B1A
:103BD0001B6F03F00203002BEED1FB7D012B05D1FF
:103BE0003B4B1B6C3A4A23F0805313647B689B6900
:103BF000002B00F0AD80364B9B6803F00C03082BC4
:103C000060D07B689B69022B45D1334B00221A6040
:103C1000FEF73AFE386108E0FEF736FE02463B69E1
:103C2000D31A022B01D9032393E0294B1B6803F01D
:103C30000073002BF0D17B68DA697B681B6A1A433A
:103C40007B685B6A9B011A437B689B6A5B08013B4C
:103C50001B041A437B68DB6A1B061A437B681B6BD9
:103C60001B071B4913434B601B4B01221A60FEF7D5
:103C70000BFE386108E0FEF707FE02463B69D31AE7
:103C8000022B01D9032364E0114B1B6803F000737E
:103C9000002BF0D05CE0104B00221A60FEF7F4FD20
:103CA000386108E0FEF7F0FD02463B69D31A022BAB
:103CB00001D903234DE0064B1B6803F00073002B72
:103CC000F0D145E07B689B69012B07D1012340E0DF
:103CD0000038024000700040600047421F4B5B68A4
:103CE000FB607B689B69012B30D0FB6803F480028A
:103CF0007B68DB699A4229D1FB6803F03F027B684D
:103D00001B6A9A4222D1FA6847F6C07313407A6858
:103D1000526A9201934219D1FB6803F440327B68E6
:103D20009B6A5B08013B1B049A420FD1FB6803F0BE
:103D300070627B68DB6A1B069A4207D1FB6803F05E
:103D4000E0427B681B6B1B079A4201D0012300E015
:103D5000002318461837BD4680BD00BF003802401A
:103D600080B582B000AF78607B68002B01D1012361
:103D700042E07B6893F84130DBB2002B06D17B68D0
:103D8000002283F840207868FEF79CFB7B682422A1
:103D900083F841207B681B68DA687B681B6822F423
:103DA0000052DA60786800F027FE7B681B681A69A9
:103DB0007B681B6822F490421A617B681B685A6911
:103DC0007B681B6822F02A025A617B681B68DA68EC
:103DD0007B681B6842F40052DA607B6800225A64F8
:103DE0007B68202283F841207B68202283F84220D0
:103DF0007B6800225A63002318460837BD4680BD01
:103E000080B582B000AF78607B68002B01D10123C0
:103E100024E07B68242283F841207B681B68DA68F1
:103E20007B681B6822F40052DA607868FEF79AFB20
:103E30007B6800225A647B68002283F841207B68FB
:103E4000002283F842207B6800221A637B680022EC
:103E50005A637B68002283F8402000231846083705
:103E6000BD4680BD80B58AB002AFF860B9603B60E6
:103E70001346FB8000237B61FB6893F84130DBB283
:103E8000202B75D1BB68002B02D0FB88002B01D101
:103E900001236EE0FB6800225A64FB68212283F84C
:103EA0004120FEF7F1FC7861FB68FA889A84FB6890
:103EB000FA88DA84FB689B68B3F5805F08D1FB68F9
:103EC0001B69002B04D10023FB61BB68BB6103E0CD
:103ED000BB68FB610023BB612EE03B6800937B69FC
:103EE00000228021F86800F091FB0346002B05D0EA
:103EF000FB68202283F8412003233AE0FB69002B72
:103F00000BD1BB691B881A46FB681B68C2F3080209
:103F10005A60BB690233BB6107E0FB691A78FB6832
:103F20001B685A60FB690133FB61FB68DB8C9BB249
:103F3000013B9AB2FB68DA84FB68DB8C9BB2002BF6
:103F4000CBD13B6800937B6900224021F86800F0E8
:103F50005DFB0346002B05D0FB68202283F841203F
:103F6000032306E0FB68202283F84120002300E0C1
:103F7000022318462037BD4680BD80B58AB002AF07
:103F8000F860B9603B601346FB8000237B61FB68EF
:103F900093F84230DBB2202B40F08180BB68002BCD
:103FA00002D0FB88002B01D1012379E0FB680022BD
:103FB0005A64FB68222283F84220FB6800221A63BD
:103FC000FEF762FC7861FB68FA889A85FB68FA88DC
:103FD000DA85FB689B68B3F5805F08D1FB681B69D5
:103FE000002B04D10023FB61BB68BB6103E0BB680D
:103FF000FB610023BB6147E03B6800937B690022C3
:104000002021F86800F002FB0346002B05D0FB6876
:10401000202283F84220032342E0FB69002B0CD1CD
:10402000FB681B685B689BB2C3F308039AB2BB6969
:104030001A80BB690233BB611FE0FB689B68B3F564
:10404000805F07D0FB689B68002B0AD1FB681B6967
:10405000002B06D1FB681B685B68DAB2FB691A703B
:1040600008E0FB681B685B68DBB203F07F03DAB231
:10407000FB691A70FB690133FB61FB68DB8D9BB246
:10408000013B9AB2FB68DA85FB68DB8D9BB2002BA3
:10409000B2D1FB68202283F84220002300E00223F3
:1040A00018462037BD4680BD80B5BAB000AF7860F5
:1040B0007B681B681B68C7F8E4307B681B68DB689B
:1040C000C7F8E0307B681B685B69C7F8DC30002309
:1040D000C7F8D8300023C7F8D430D7F8E43003F05D
:1040E0000F03C7F8D830D7F8D830002B0FD1D7F846
:1040F000E43003F02003002B09D0D7F8E03003F0C0
:104100002003002B03D0786800F0B8FB5BE2D7F8FF
:10411000D830002B00F0DE80D7F8DC3003F001034C
:10412000002B06D1D7F8E03003F49073002B00F099
:10413000D180D7F8E43003F00103002B0BD0D7F87F
:10414000E03003F48073002B05D07B685B6C43F098
:1041500001027B685A64D7F8E43003F00403002BB3
:104160000BD0D7F8DC3003F00103002B05D07B68BF
:104170005B6C43F002027B685A64D7F8E43003F0CA
:104180000203002B0BD0D7F8DC3003F00103002B27
:1041900005D07B685B6C43F004027B685A64D7F8F7
:1041A000E43003F00803002B11D0D7F8E03003F01F
:1041B0002003002B05D1D7F8DC3003F00103002BDE
:1041C00005D07B685B6C43F008027B685A647B68AF
:1041D0005B6C002B00F0F281D7F8E43003F0200391
:1041E000002B08D0D7F8E03003F02003002B02D0DA
:1041F000786800F043FB7B681B685B6903F0400351
:10420000402B0CBF01230023DBB2C7F8D4307B68FE
:104210005B6C03F00803002B03D1D7F8D430002BDC
:104220004FD0786800F04BFA7B681B685B6903F03D
:104230004003402B41D17B681B681433C7F89C3086
:10424000D7F89C3053E8003FC7F89830D7F898303B
:1042500023F04003C7F8D0307B681B681433D7F8CD
:10426000D020C7F8A820C7F8A430D7F8A410D7F8F2
:10427000A82041E80023C7F8A030D7F8A030002BD1
:10428000D9D17B68DB6B002B13D07B68DB6B7E4A5C
:104290001A657B68DB6B1846FEF7B5FC0346002BFE
:1042A00016D07B68DB6B1B6D7A68D26B1046984723
:1042B0000EE0786800F094F90AE0786800F090F970
:1042C00006E0786800F08CF97B6800225A6475E19A
:1042D00000BF73E17B681B6B012B40F04F81D7F867
:1042E000E43003F01003002B00F04881D7F8E030F1
:1042F00003F01003002B00F041810023BB607B68BA
:104300001B681B68BB607B681B685B68BB60BB6825
:104310007B681B685B6903F04003402B40F0B6806C
:104320007B68DB6B1B685B68A7F8BE30B7F8BE30F4
:10433000002B00F045817B689B8DB7F8BE209A4228
:1043400080F03E817B68B7F8BE20DA857B68DB6B46
:10435000DB69B3F5807F00F088807B681B680C33D5
:10436000C7F88830D7F8883053E8003FC7F8843062
:10437000D7F8843023F48073C7F8B8307B681B68A3
:104380000C33D7F8B820C7F89420C7F89030D7F886
:104390009010D7F8942041E80023C7F88C30D7F864
:1043A0008C30002BD9D17B681B6814337B677B6F03
:1043B00053E8003F3B673B6F23F00103C7F8B4307D
:1043C0007B681B681433D7F8B420C7F88020FB67DC
:1043D000F96FD7F8802041E80023BB67BB6F002B43
:1043E000E1D17B681B6814333B663B6E53E8003FAA
:1043F000FB65FB6D23F04003C7F8B0307B681B689A
:104400001433D7F8B020FA66BB66B96EFA6E41E88D
:1044100000237B667B6E002BE3D17B68202283F830
:1044200042207B6800221A637B681B680C33FB64A4
:10443000FB6C53E8003FBB64BB6C23F01003C7F870
:10444000AC307B681B680C33D7F8AC20BA657B6551
:10445000796DBA6D41E800233B653B6D002BE3D1DC
:104460007B68DB6B1846FEF75EFB7B6802225A63B3
:104470007B689A8D7B68DB8D9BB2D31A9BB2194601
:10448000786800F0B7F89BE0854700087B689A8D54
:104490007B68DB8D9BB2D31AA7F8CE307B68DB8DAF
:1044A0009BB2002B00F08E80B7F8CE30002B00F0CE
:1044B00089807B681B680C33BB63BB6B53E8003F90
:1044C0007B637B6B23F49073C7F8C8307B681B68F1
:1044D0000C33D7F8C8207A643B64396C7A6C41E8B5
:1044E0000023FB63FB6B002BE3D17B681B68143359
:1044F0007B627B6A53E8003F3B623B6A23F0010327
:10450000C7F8C4307B681B681433D7F8C4203A63FB
:10451000FB62F96A3A6B41E80023BB62BB6A002B7D
:10452000E3D17B68202283F842207B6800221A6353
:104530007B681B680C333B613B6953E8003FFB60C1
:10454000FB6823F01003C7F8C0307B681B680C338E
:10455000D7F8C020FA61BB61B969FA6941E8002364
:104560007B617B69002BE3D17B6802225A63B7F839
:10457000CE301946786800F03DF823E0D7F8E430F3
:1045800003F08003002B09D0D7F8E03003F080035C
:10459000002B03D0786800F009F914E0D7F8E43074
:1045A00003F04003002B0ED0D7F8E03003F04003B7
:1045B000002B08D0786800F049F904E000BF02E061
:1045C00000BF00E000BFE837BD4680BD80B483B0C7
:1045D00000AF786000BF0C37BD465DF8047B7047C4
:1045E00080B483B000AF786000BF0C37BD465DF883
:1045F000047B704780B483B000AF78600B467B804B
:1046000000BF0C37BD465DF8047B704780B586B0AF
:1046100000AFF860B9603B601346FB713BE03B6A5A
:10462000B3F1FF3F37D0FEF72FF902463B68D31AAC
:104630003A6A9A4202D33B6A002B01D103233AE043
:10464000FB681B68DB6803F00403002B23D0BB6806
:10465000802B20D0BB68402B1DD0FB681B681B68DB
:1046600003F00803082B16D100237B61FB681B684D
:104670001B687B61FB681B685B687B617B69F86812
:1046800000F01DF8FB6808225A64FB68002283F8DA
:10469000402001230FE0FB681B681A68BB681340C9
:1046A000BA689A420CBF01230023DBB21A46FB7999
:1046B0009A42B4D0002318461837BD4680BD80B456
:1046C00095B000AF78607B681B680C337B637B6BB5
:1046D00053E8003F3B633B6B23F49073FB647B68C0
:1046E0001B680C33FA6C3A64FB63F96B3A6C41E873
:1046F0000023BB63BB6B002BE5D17B681B681433C5
:104700003B623B6A53E8003FFB61FB6923F0010316
:10471000BB647B681B681433BA6CFA62BB62B96A0B
:10472000FA6A41E800237B627B6A002BE5D17B6853
:104730001B6B012B19D17B681B680C33FB60FB687A
:1047400053E8003FBB60BB6823F010037B647B68C9
:104750001B680C337A6CBA617B617969BA6941E88C
:1047600000233B613B69002BE5D17B68202283F865
:1047700042207B6800221A6300BF5437BD465DF8B3
:10478000047B704780B584B000AF78607B689B6B1A
:10479000FB60FB680022DA85FB680022DA84F86897
:1047A000FFF71EFF00BF1037BD4680BD80B485B047
:1047B00000AF78607B6893F84130DBB2212B3ED1AB
:1047C0007B689B68B3F5805F14D17B681B69002B05
:1047D00010D17B681B6AFB60FB681B881A467B68EC
:1047E0001B68C2F308025A607B681B6A9A1C7B68CC
:1047F0001A6208E07B681B6A591C7A6811621A7891
:104800007B681B685A607B68DB8C9BB2013B9BB268
:104810007A681946D184002B0FD17B681B68DA684F
:104820007B681B6822F08002DA607B681B68DA68AC
:104830007B681B6842F04002DA60002300E002233C
:1048400018461437BD465DF8047B704780B582B0CA
:1048500000AF78607B681B68DA687B681B6822F0B1
:104860004002DA607B68202283F841207868FFF7F5
:10487000ADFE002318460837BD4680BD80B58CB01C
:1048800000AF78607B6893F84230DBB2222B40F0B7
:10489000AE807B689B68B3F5805F17D17B681B692E
:1048A000002B13D10023FB627B689B6ABB627B6891
:1048B0001B685B689BB2C3F308039AB2BB6A1A8099
:1048C0007B689B6A9A1C7B689A6226E07B689B6A7D
:1048D000FB620023BB627B689B68B3F5805F07D0F7
:1048E0007B689B68002B0AD17B681B69002B06D173
:1048F0007B681B685B68DAB2FB6A1A7008E07B6849
:104900001B685B68DBB203F07F03DAB2FB6A1A70E4
:104910007B689B6A5A1C7B689A627B68DB8D9BB2C2
:10492000013B9BB27A681946D185002B5DD17B682B
:104930001B68DA687B681B6822F02002DA607B68FB
:104940001B68DA687B681B6822F48072DA607B6817
:104950001B685A697B681B6822F001025A617B68F8
:10496000202283F842207B6800225A637B681B6BFD
:10497000012B35D17B6800221A637B681B680C33DE
:104980007B617B6953E8003F3B613B6923F0100387
:104990007B627B681B680C337A6A3A62FB61F96957
:1049A0003A6A41E80023BB61BB69002BE5D17B6813
:1049B0001B681B6803F01003102B0AD10023FB6057
:1049C0007B681B681B68FB607B681B685B68FB601F
:1049D000FB687B689B8D19467868FFF70BFE02E049
:1049E0007868FDF765FA002302E0002300E0022367
:1049F00018463037BD4680BD2DE9B04FC0B000AF7E
:104A0000C7F8F400D7F8F4301B681B6923F4405052
:104A1000D7F8F430D968D7F8F4301A6840EA0103BF
:104A20001361D7F8F4309A68D7F8F4301B691A4349
:104A3000D7F8F4305B691A43D7F8F430DB691343D5
:104A4000C7F8F830D7F8F4301B68DB6823F4164158
:104A500021F00C01D7F8F4301A68D7F8F8300B437E
:104A6000D360D7F8F4301B685B6923F44070D7F843
:104A7000F4309969D7F8F4301A6840EA01035361B9
:104A8000D7F8F4301A688F4B9A4205D0D7F8F43033
:104A90001A688D4B9A4204D1FEF780FCC7F8FC00DF
:104AA00003E0FEF767FCC7F8FC00D7F8F430DB69D9
:104AB000B3F5004F40F00C81D7F8FC300022C7F866
:104AC000E830C7F8EC20D7E93A4522462B46911842
:104AD000B9655B41FB65D7E91623214612EB010856
:104AE000294643EB01094FF000024FF000034FEA63
:104AF000C90343EA58734FEAC802904699462346D1
:104B000018EB0303C7F8E0302B4649EB0303C7F863
:104B1000E430D7F8F4305B680022C7F8D830C7F823
:104B2000DC20D7E936120B46DB183B65134642EB17
:104B300003037B65D7E91423D7E93801FBF7FCFDB4
:104B400002460B46614BA3FB02235B091C01D7F80D
:104B5000FC300022C7F8D030C7F8D420D7E9348918
:104B600042464B469118B9645B41FB64D7E9122376
:104B7000414612EB010A494643EB010B4FF000029C
:104B80004FF000034FEACB0343EA5A734FEACA02DD
:104B900092469B4643461AEB0303C7F8C8304B4680
:104BA0004BEB0303C7F8CC30D7F8F4305B68002236
:104BB000C7F8C030C7F8C420D7E930120B46DB185D
:104BC0003B64134642EB03037B64D7E91023D7E928
:104BD0003201FBF7B1FD02460B4611463B4BA3FBEE
:104BE00001235B09642202FB03F3CB1ADB0003F110
:104BF0003202364BA3FB02235B095B0003F4F8731C
:104C00001C44D7F8FC300022C7F8B830C7F8BC20E5
:104C1000D7E92E8942464B469118B9635B41FB6345
:104C2000D7E90E2341465118396349464B417B630E
:104C30004FF000024FF00003D7E90CAB5946CB0010
:104C4000514643EA51735146CA001046194603467D
:104C500042469B18C7F8B0304B460A4642EB030366
:104C6000C7F8B430D7F8F4305B680022C7F8A83032
:104C7000C7F8AC20D7E92A120B46DB18BB621346F3
:104C800042EB0303FB62D7E90A23D7E92C01FBF7C8
:104C900053FD02460B460D4BA3FB02135B09642137
:104CA00001FB03F3D31ADB003233084AA2FB0323D0
:104CB0005B0903F00702D7F8F4301B6822449A60BE
:104CC00006E100BF00100140001401401F85EB51B8
:104CD000D7F8FC300022C7F8A030C7F8A420D7E9E5
:104CE000288942464B46911839625B417B62D7E97D
:104CF000082341465418494643EB01054FF0000292
:104D00004FF00003EB0043EA5473E20014461D46E3
:104D10004346E318C7F898304B4645EB0303C7F802
:104D20009C30D7F8F4305B680022C7F89030C7F8A1
:104D300094204FF000024FF00003D7E924452946A4
:104D40008B00214643EA917321468A00D7E9260168
:104D5000FBF7F2FC02460B46604BA3FB02235B0908
:104D60001C01D7F8FC300022C7F88830C7F88C2027
:104D7000D7E9228942464B469118B9615B41FB61F4
:104D8000D7E9062341465118396149464B417B61B9
:104D90004FF000024FF00003D7E904AB5946CB00B7
:104DA000514643EA51735146CA001046194603461C
:104DB00042469B18C7F880304B460A4642EB030335
:104DC000C7F88430D7F8F4305B680022BB67FA6715
:104DD0004FF000024FF00003D7E91E8949468B00CF
:104DE000414643EA917341468A00D7E92001FBF727
:104DF000A3FC02460B461146384BA3FB01235B097B
:104E0000642202FB03F3CB1A1B013233334AA2FBA9
:104E100003235B0903F0F0031C44D7F8FC300022A5
:104E20003B677A67D7E91C8942464B469118B960BF
:104E30005B41FB60D7E9022341465118396049467E
:104E40004B417B604FF000024FF00003D7E900AB0D
:104E50005946CB00514643EA51735146CA001046A9
:104E60001946034642469B18BB664B460A4642EB30
:104E70000303FB66D7F8F4305B6800223B667A6672
:104E80004FF000024FF00003D7E9188949468B0024
:104E9000414643EA917341468A00D7E91A01FBF77C
:104EA0004BFC02460B460D4BA3FB02135B0964212E
:104EB00001FB03F3D31A1B013233084AA2FB03237D
:104EC0005B0903F00F02D7F8F4301B6822449A60A4
:104ED00000BF07F58077BD46BDE8B08F1F85EB5159
:104EE000DFF834D0FDF758FC0C480D490D4A00237B
:104EF00002E0D458C4500433C4188C42F9D30A4A8F
:104F00000A4C002301E013600432A242FBD30CF0F0
:104F10004BFFFDF794F970470000022000000020CD
:104F200060070020986A010860070020B451002043
:104F3000FEE7000000285ED010B5027884B003467A
:104F40000A2A5AD8DFE802F012122A1A1A060606AE
:104F500032462200586B0A6A52F82020003A18BFE5
:104F6000012283F83920002004B010BD586B0A6874
:104F700052F82020003A18BF0122F2E7586B8A69E4
:104F800052F82020003A18BF0122EAE7586B8A68DD
:104F900052F82020003A18BF0122E2E7586B0A6954
:104FA00052F82020003A18BF0122DAE75C68084670
:104FB00004F1440204F1430104F14203CDE901216B
:104FC000009304F1400204F1410304F1100109F0DF
:104FD000EDFEC9E75C6804F1230204F12203CDE988
:104FE0000032084604F1210304F1200204F110010B
:104FF0000AF0E2F8B8E70B2070470120B4E700BFE1
:10500000F0B59BB0002800F08280037804460A2B9C
:1050100000F25D81DFE803F01F1F53313106060601
:1050200055455300426B0B6A53F82230002B46D093
:10503000D0E9010204F1100101F098FC05460028B6
:105040003DD040F25923984228D1002384F83930CA
:1050500028461BB0F0BD426B0B6853F8223073B387
:10506000D0E9010100230AAA01F0E2FC054630B3B1
:1050700040F291139842E8D010E0426B8B6953F8EC
:105080002230E3B1D0E9010204F1100100F090FDFB
:105090000546A0B140F2F5139842D9D002F0ACFF1A
:1050A000D6E7406890F82030002B5FD190F822308E
:1050B000002B79D190F82130002B40F0968000250C
:1050C000C6E7406890F84230002B38D1C36913B16D
:1050D00090F84030FBB990F84430002B40F0A880A5
:1050E00090F84330002BEAD0C26A0AA9103009F0C8
:1050F00041FD05460028D1D1DDE90E2360680AF0A4
:1051000081F90028DBD0012380F82330D7E70B2575
:1051100028461BB0F0BD816A103009F0A7FD054696
:105120000028BBD16068816A0AF02AF9034600288A
:1051300000F0C4800122606883F82220CBE704AA33
:105140000AA9103009F0A6FC05460028A6D1DDE921
:105150000E2360680AF044F930B19DF8103080F8F1
:105160002130012280F820206068AFE70AF0E2F8E1
:1051700006466068002E99D07060F26906F1280139
:10518000103009F0A3FE0546002840F09980F76929
:105190000FCF3572C6F80900C6F80D106068C6F862
:1051A0001120C6F8153081E704AA10300AA909F0C9
:1051B000FDFE054600287FF471AF606804A90AF07F
:1051C000DFF8074660B10AAD00F140060FCD0FC60B
:1051D00095E803004FF0020C86E8030087F808C04A
:1051E0006068002380F8223064E704AE0AAA103019
:1051F000314609F019FF054600287FF44FAF60687B
:105200000AA90AF0BDF8054600284CD090F908001C
:1052100001210AF03DF80328074639D10FCE05F1E8
:1052200058040FC496E8030084E803002F7246E791
:1052300000F130020AA9103009F0DAFC0546002816
:105240007FF42CAFDDE90E2360680AF0EDF8064626
:105250006068002E3FF444AF836B0127B784002BB6
:105260003FF43EAF436B05EB450103EBC1010AF090
:1052700087F838B16068836B86F825700135AB42DA
:10528000F0D82DE76068836B0135AB42EAD827E799
:1052900006AB0FCB8DE80F00032196E80C00606889
:1052A0000AF036F90BE706AB0FCB8DE80F000221B1
:1052B00096E80C0060680AF02BF900E760680AE7DE
:1052C000606831460AF046F802F096FEC0E6012515
:1052D000BEE600BF034670B379B390F838000022F1
:1052E00050B330B493F800C0BCF1080F17D0BCF134
:1052F000090F0DD093F8390040B90132914203F102
:10530000400303D093F838000028EBD130BC70473D
:105310005C68256A002DF9D194F82400ECE75C68FC
:10532000256C35F07F45F1D194F844000028EDD18B
:1053300094F84300E0E7704770470846704700BFA5
:10534000002800F0DA80F0B5437887B0044623B136
:10535000012B1CD0002007B0F0BD0378082B00F013
:105360009E80092B24D090F839000028F2D00A2B17
:1053700000F25381DFE813F071008C007E007100B1
:105380007500580058005800510151017B00037806
:105390000A2B00F24281DFE813F0F70079006D007C
:1053A000600064004700470047000501FE006A00F6
:1053B0004068026A90F82430002A40F0EF80002B09
:1053C000C8D003E0486809F0C5FF606809F0FCFF39
:1053D00001460028F6D1606880F8241090F820304B
:1053E000002B00F0EA8040F63406012707E028464B
:1053F0000AF044F86068294609F0ACFF60680021B3
:1054000009F0D6FF0546002800F0D4806368E16A01
:105410009B699847B0424FF00001E8D1012128462E
:105420000AF02CF82F72E9E7062BA068A16A266B18
:1054300004F1100500F0BA80072B40F0B580E26A55
:10544000B047A26A6068294601F0D0FA002882D0ED
:10545000059002F0D1FD05987DE7236BA068984781
:1054600078E7236BA06804F11001984772E7236B7B
:1054700098476FE7606801F0E5FD40F221339842FC
:105480003FF468AF00283FF466AFE1E790F83900D9
:10549000D4E90B130028E8D0A06898475AE7406881
:1054A000036C33F07F4307D190F8443023B990F870
:1054B0004330002B3FF44EAF90F8423003B3002648
:1054C000012704E009F010FF90B92F72606809F01D
:1054D000BDFF054698B16368E26A9B6995F82110A3
:1054E00085F82060984795F821302846002BE9D1AF
:1054F0006068294609F02EFFE8E70B2070476068D6
:1055000090F840308BB1C5682DB3002695F8223055
:1055100043B1C36985F8226023B1816AE26A2846F3
:10552000984760682D68002DF0D190F8443093B111
:10553000C56885B1002695F824304BB1436A85F8DB
:1055400024602BB1284695F82510E26A98476068D8
:105550002D68002DEFD190F84330002B3FF4FAAEC8
:1055600000270BE06368E26AD96A1E6A85F8237037
:10557000B0476068294609F0EDFE606809F072FFE7
:1055800005460028EED1E5E690F83900236B0028A7
:105590003FF465AF62E7406890F82430002B3FF499
:1055A0001DAF13E7406887E7B0474AE70A46294638
:1055B000B04746E7606880F8205090F82130002B13
:1055C0003FF4C8AEC56825B3022601E02D6805B3D7
:1055D00095F90830032BF9D1C369E16A2846984749
:1055E000034605F16002284685F825301BB109F015
:1055F00063FF6068EAE70FCA8DE80F0005F15807FE
:10560000D7E900236068012109F082FF2E726068EB
:10561000DCE7002380F821309CE601209BE600BFF8
:1056200000285AD02DE9F0410D46B0B0002950D0E5
:105630000446184616461F4602F0FCFB002848D0D8
:10564000002E46D02A4988220EA80CF0E9FB0EA9AC
:10565000882220460CF0E4FB25606846A6606D4673
:1056600001F0F8FD0FCD04F1140CD7F80080ACE880
:105670000F000FCDACE80F000FCDACE80F009FED91
:105680001A7B2B68CCF800303969276184ED1A7BCE
:10569000B001C047606010B3002500E0606800EB17
:1056A00085103146013500F0EDF9AE42F6D104F136
:1056B000480000F0DDF90F4962680023C4E91E13B9
:1056C0002AB122691AB1A2680AB184F88030002098
:1056D00000E00B2030B0BDE8F0810B2070470A20BD
:1056E000F8E700BFAFF3008000CA9A3B000000005B
:1056F000705C0108D552000800B3F9B138B5D0E9A3
:1057000002239342044601D3012038BD406800EBD8
:1057100083129D0151600221415301330020012178
:1057200004F11405D06211872846E36001F0A6FD5C
:1057300030B9E36C01330020E36438BD0B207047BF
:10574000284601F0A1FD0028F3D038BD002844D040
:10575000F0B500F114059BB00446284601F08EFD1B
:1057600010B100201BB0F0BD284601F08DFD0028CF
:1057700030D10CA801F06EFD0DF1300CBCE80F002B
:10578000AE462769AEE80F00BCE80F00AEE80F0098
:10579000BCE80F00AEE80F00DCF80030CEF80030B7
:1057A0000FCF04AE0FC63B6822683360636E616D35
:1057B000CDE90232D4E91332CDE900212846226E28
:1057C000A16C02F07DF80028CBD00B9002F014FC05
:1057D0000B98C7E702F010FCCBE70B20704700BF27
:1057E0002DE9F04F83B0002800F091800446006856
:1057F0009046994600F074FA002837D0204604F10C
:105800001407FFF7A3FF384601F00EFE06460028F6
:1058100077D1A3680546EBB1616801EB851CAA014D
:105820009CF83830B3B18B5C0A2B1FD8DFE803F04B
:1058300034343E25250606065D524800DCF8041087
:105840000CF13402384602F04FF9F8B9A36801357B
:10585000AB42E1D842464B46384602F071F994F823
:105860008050002D00F0AC80012D55D002F0C4FB1B
:105870000126304603B0BDE8F08FDCF804100CF1CF
:105880003402384602F004F90028DFD0019002F01B
:10589000B3FB01980646ECE7DCF804100CF1340287
:1058A000384601F095FD0028D0D0EFE7DCF8041071
:1058B0000CF13402384602F0BBF80028C6D0E5E708
:1058C000DCF804100CF13402384602F085F80028A8
:1058D000BCD0DBE7DCF804100CF1340210313846A0
:1058E00009F016FC0028B1D0D0E7DCF80410002342
:1058F0000CF134021031384609F0F8F90028A5D02F
:10590000C4E702F079FB304603B0BDE8F08F0B2608
:10591000304603B0BDE8F08FD4E901C263461546B6
:10592000CAB10025A84640F291190AE0FFF702FB30
:10593000054608B1484541D1A268904580F08E8067
:10594000636803EB88109C4690F83830394608F1BC
:105950000108002BEAD111466046D4E91E3298476F
:1059600060B3A36853B34FF0000840F2911908E008
:10597000FFF746FB054608B148451FD1A368984587
:1059800009D2606800EB8810394690F8382008F199
:105990000108002AECD1002743B90FE0FFF7D0FC43
:1059A000054658B9A3689F42BFF463AF606800EB37
:1059B0008710013790F83830002BEFD12E4658E78A
:1059C000D4E901C26346002A50D0A84640F291199A
:1059D00009E0FFF7AFFA054608B14845EED1A268E5
:1059E00090453ED2636803EB88109C4690F83830AF
:1059F000394608F10108002BEBD111466046D4E985
:105A00001E3298470028D9D0A368002BD6D04FF07B
:105A1000000A40F2911840F2592911E0FFF7F0FA1C
:105A200018B1404501D048451ED160685844FFF781
:105A300087FC05460028C1D1A3689A45BFF419AF79
:105A4000606800EB8A104FEA8A1B90F838303946BC
:105A50000AF1010A002BE1D12E460AE7D4F804C06E
:105A600079E7D4F804C0C8E7064602E71546C4E75C
:105A700030B108B5202200210CF0B8F8002008BD94
:105A80000B20704758B100230B22C0E90133C0E955
:105A90000A33C0E90C3102800387184670470B2097
:105AA000704700BF2DE9F04186B0B8B31C46ABB3D8
:105AB0000F469046064600F0CBFA04F10C03059021
:105AC00093E803008DE8030005A894E80E0000F0B9
:105AD000C1FA0546E0B902AD284600F0F7F895E8AE
